{
  "_format": "hh-sol-artifact-1",
  "contractName": "NFTCollectible",
  "sourceName": "contracts/Midly.sol",
  "abi": [
    {
      "inputs": [
        {
          "internalType": "string",
          "name": "baseURI",
          "type": "string"
        },
        {
          "internalType": "uint256",
          "name": "max_supply",
          "type": "uint256"
        },
        {
          "internalType": "uint256",
          "name": "price",
          "type": "uint256"
        },
        {
          "internalType": "uint256",
          "name": "max_per_mint",
          "type": "uint256"
        }
      ],
      "stateMutability": "nonpayable",
      "type": "constructor"
    },
    {
      "anonymous": false,
      "inputs": [
        {
          "indexed": true,
          "internalType": "address",
          "name": "owner",
          "type": "address"
        },
        {
          "indexed": true,
          "internalType": "address",
          "name": "approved",
          "type": "address"
        },
        {
          "indexed": true,
          "internalType": "uint256",
          "name": "tokenId",
          "type": "uint256"
        }
      ],
      "name": "Approval",
      "type": "event"
    },
    {
      "anonymous": false,
      "inputs": [
        {
          "indexed": true,
          "internalType": "address",
          "name": "owner",
          "type": "address"
        },
        {
          "indexed": true,
          "internalType": "address",
          "name": "operator",
          "type": "address"
        },
        {
          "indexed": false,
          "internalType": "bool",
          "name": "approved",
          "type": "bool"
        }
      ],
      "name": "ApprovalForAll",
      "type": "event"
    },
    {
      "anonymous": false,
      "inputs": [
        {
          "indexed": true,
          "internalType": "address",
          "name": "previousOwner",
          "type": "address"
        },
        {
          "indexed": true,
          "internalType": "address",
          "name": "newOwner",
          "type": "address"
        }
      ],
      "name": "OwnershipTransferred",
      "type": "event"
    },
    {
      "anonymous": false,
      "inputs": [
        {
          "indexed": true,
          "internalType": "address",
          "name": "from",
          "type": "address"
        },
        {
          "indexed": true,
          "internalType": "address",
          "name": "to",
          "type": "address"
        },
        {
          "indexed": true,
          "internalType": "uint256",
          "name": "tokenId",
          "type": "uint256"
        }
      ],
      "name": "Transfer",
      "type": "event"
    },
    {
      "inputs": [
        {
          "internalType": "address",
          "name": "to",
          "type": "address"
        },
        {
          "internalType": "uint256",
          "name": "tokenId",
          "type": "uint256"
        }
      ],
      "name": "approve",
      "outputs": [],
      "stateMutability": "nonpayable",
      "type": "function"
    },
    {
      "inputs": [
        {
          "internalType": "address",
          "name": "owner",
          "type": "address"
        }
      ],
      "name": "balanceOf",
      "outputs": [
        {
          "internalType": "uint256",
          "name": "",
          "type": "uint256"
        }
      ],
      "stateMutability": "view",
      "type": "function"
    },
    {
      "inputs": [],
      "name": "baseTokenURI",
      "outputs": [
        {
          "internalType": "string",
          "name": "",
          "type": "string"
        }
      ],
      "stateMutability": "view",
      "type": "function"
    },
    {
      "inputs": [
        {
          "internalType": "uint256",
          "name": "tokenId",
          "type": "uint256"
        }
      ],
      "name": "getApproved",
      "outputs": [
        {
          "internalType": "address",
          "name": "",
          "type": "address"
        }
      ],
      "stateMutability": "view",
      "type": "function"
    },
    {
      "inputs": [
        {
          "internalType": "address",
          "name": "owner",
          "type": "address"
        },
        {
          "internalType": "address",
          "name": "operator",
          "type": "address"
        }
      ],
      "name": "isApprovedForAll",
      "outputs": [
        {
          "internalType": "bool",
          "name": "",
          "type": "bool"
        }
      ],
      "stateMutability": "view",
      "type": "function"
    },
    {
      "inputs": [
        {
          "internalType": "uint256",
          "name": "_count",
          "type": "uint256"
        }
      ],
      "name": "mintNFTs",
      "outputs": [],
      "stateMutability": "payable",
      "type": "function"
    },
    {
      "inputs": [],
      "name": "name",
      "outputs": [
        {
          "internalType": "string",
          "name": "",
          "type": "string"
        }
      ],
      "stateMutability": "view",
      "type": "function"
    },
    {
      "inputs": [],
      "name": "owner",
      "outputs": [
        {
          "internalType": "address",
          "name": "",
          "type": "address"
        }
      ],
      "stateMutability": "view",
      "type": "function"
    },
    {
      "inputs": [
        {
          "internalType": "uint256",
          "name": "tokenId",
          "type": "uint256"
        }
      ],
      "name": "ownerOf",
      "outputs": [
        {
          "internalType": "address",
          "name": "",
          "type": "address"
        }
      ],
      "stateMutability": "view",
      "type": "function"
    },
    {
      "inputs": [],
      "name": "renounceOwnership",
      "outputs": [],
      "stateMutability": "nonpayable",
      "type": "function"
    },
    {
      "inputs": [],
      "name": "reserveNFTs",
      "outputs": [],
      "stateMutability": "nonpayable",
      "type": "function"
    },
    {
      "inputs": [
        {
          "internalType": "address",
          "name": "from",
          "type": "address"
        },
        {
          "internalType": "address",
          "name": "to",
          "type": "address"
        },
        {
          "internalType": "uint256",
          "name": "tokenId",
          "type": "uint256"
        }
      ],
      "name": "safeTransferFrom",
      "outputs": [],
      "stateMutability": "nonpayable",
      "type": "function"
    },
    {
      "inputs": [
        {
          "internalType": "address",
          "name": "from",
          "type": "address"
        },
        {
          "internalType": "address",
          "name": "to",
          "type": "address"
        },
        {
          "internalType": "uint256",
          "name": "tokenId",
          "type": "uint256"
        },
        {
          "internalType": "bytes",
          "name": "_data",
          "type": "bytes"
        }
      ],
      "name": "safeTransferFrom",
      "outputs": [],
      "stateMutability": "nonpayable",
      "type": "function"
    },
    {
      "inputs": [
        {
          "internalType": "address",
          "name": "operator",
          "type": "address"
        },
        {
          "internalType": "bool",
          "name": "approved",
          "type": "bool"
        }
      ],
      "name": "setApprovalForAll",
      "outputs": [],
      "stateMutability": "nonpayable",
      "type": "function"
    },
    {
      "inputs": [
        {
          "internalType": "string",
          "name": "_baseTokenURI",
          "type": "string"
        }
      ],
      "name": "setBaseURI",
      "outputs": [],
      "stateMutability": "nonpayable",
      "type": "function"
    },
    {
      "inputs": [
        {
          "internalType": "bytes4",
          "name": "interfaceId",
          "type": "bytes4"
        }
      ],
      "name": "supportsInterface",
      "outputs": [
        {
          "internalType": "bool",
          "name": "",
          "type": "bool"
        }
      ],
      "stateMutability": "view",
      "type": "function"
    },
    {
      "inputs": [],
      "name": "symbol",
      "outputs": [
        {
          "internalType": "string",
          "name": "",
          "type": "string"
        }
      ],
      "stateMutability": "view",
      "type": "function"
    },
    {
      "inputs": [
        {
          "internalType": "uint256",
          "name": "index",
          "type": "uint256"
        }
      ],
      "name": "tokenByIndex",
      "outputs": [
        {
          "internalType": "uint256",
          "name": "",
          "type": "uint256"
        }
      ],
      "stateMutability": "view",
      "type": "function"
    },
    {
      "inputs": [
        {
          "internalType": "address",
          "name": "owner",
          "type": "address"
        },
        {
          "internalType": "uint256",
          "name": "index",
          "type": "uint256"
        }
      ],
      "name": "tokenOfOwnerByIndex",
      "outputs": [
        {
          "internalType": "uint256",
          "name": "",
          "type": "uint256"
        }
      ],
      "stateMutability": "view",
      "type": "function"
    },
    {
      "inputs": [
        {
          "internalType": "uint256",
          "name": "tokenId",
          "type": "uint256"
        }
      ],
      "name": "tokenURI",
      "outputs": [
        {
          "internalType": "string",
          "name": "",
          "type": "string"
        }
      ],
      "stateMutability": "view",
      "type": "function"
    },
    {
      "inputs": [
        {
          "internalType": "address",
          "name": "_owner",
          "type": "address"
        }
      ],
      "name": "tokensOfOwner",
      "outputs": [
        {
          "internalType": "uint256[]",
          "name": "",
          "type": "uint256[]"
        }
      ],
      "stateMutability": "view",
      "type": "function"
    },
    {
      "inputs": [],
      "name": "totalSupply",
      "outputs": [
        {
          "internalType": "uint256",
          "name": "",
          "type": "uint256"
        }
      ],
      "stateMutability": "view",
      "type": "function"
    },
    {
      "inputs": [
        {
          "internalType": "address",
          "name": "from",
          "type": "address"
        },
        {
          "internalType": "address",
          "name": "to",
          "type": "address"
        },
        {
          "internalType": "uint256",
          "name": "tokenId",
          "type": "uint256"
        }
      ],
      "name": "transferFrom",
      "outputs": [],
      "stateMutability": "nonpayable",
      "type": "function"
    },
    {
      "inputs": [
        {
          "internalType": "address",
          "name": "newOwner",
          "type": "address"
        }
      ],
      "name": "transferOwnership",
      "outputs": [],
      "stateMutability": "nonpayable",
      "type": "function"
    },
    {
      "inputs": [],
      "name": "withdraw",
      "outputs": [],
      "stateMutability": "payable",
      "type": "function"
    }
  ],
  "bytecode": "0x60806040526064600c55662386f26fc10000600d556005600e553480156200002657600080fd5b50604051620046e3380380620046e383398181016040528101906200004c919062000332565b6040518060400160405280600f81526020017f4e465420436f6c6c65637469626c6500000000000000000000000000000000008152506040518060400160405280600481526020017f4e465443000000000000000000000000000000000000000000000000000000008152508160009080519060200190620000d0929190620001f9565b508060019080519060200190620000e9929190620001f9565b5050506200010c620001006200012b60201b60201c565b6200013360201b60201c565b82600c8190555081600d8190555080600e81905550505050506200054b565b600033905090565b6000600a60009054906101000a900473ffffffffffffffffffffffffffffffffffffffff16905081600a60006101000a81548173ffffffffffffffffffffffffffffffffffffffff021916908373ffffffffffffffffffffffffffffffffffffffff1602179055508173ffffffffffffffffffffffffffffffffffffffff168173ffffffffffffffffffffffffffffffffffffffff167f8be0079c531659141344cd1fd0a4f28419497f9722a3daafe3b4186f6b6457e060405160405180910390a35050565b828054620002079062000456565b90600052602060002090601f0160209004810192826200022b576000855562000277565b82601f106200024657805160ff191683800117855562000277565b8280016001018555821562000277579182015b828111156200027657825182559160200191906001019062000259565b5b5090506200028691906200028a565b5090565b5b80821115620002a55760008160009055506001016200028b565b5090565b6000620002c0620002ba84620003e0565b620003b7565b905082815260208101848484011115620002d957600080fd5b620002e684828562000420565b509392505050565b600082601f8301126200030057600080fd5b815162000312848260208601620002a9565b91505092915050565b6000815190506200032c8162000531565b92915050565b600080600080608085870312156200034957600080fd5b600085015167ffffffffffffffff8111156200036457600080fd5b6200037287828801620002ee565b945050602062000385878288016200031b565b935050604062000398878288016200031b565b9250506060620003ab878288016200031b565b91505092959194509250565b6000620003c3620003d6565b9050620003d182826200048c565b919050565b6000604051905090565b600067ffffffffffffffff821115620003fe57620003fd620004f1565b5b620004098262000520565b9050602081019050919050565b6000819050919050565b60005b838110156200044057808201518184015260208101905062000423565b8381111562000450576000848401525b50505050565b600060028204905060018216806200046f57607f821691505b60208210811415620004865762000485620004c2565b5b50919050565b620004978262000520565b810181811067ffffffffffffffff82111715620004b957620004b8620004f1565b5b80604052505050565b7f4e487b7100000000000000000000000000000000000000000000000000000000600052602260045260246000fd5b7f4e487b7100000000000000000000000000000000000000000000000000000000600052604160045260246000fd5b6000601f19601f8301169050919050565b6200053c8162000416565b81146200054857600080fd5b50565b614188806200055b6000396000f3fe6080604052600436106101665760003560e01c806355f804b3116100d157806395d89b411161008a578063c87b56dd11610064578063c87b56dd1461050c578063d547cfb714610549578063e985e9c514610574578063f2fde38b146105b157610166565b806395d89b411461048f578063a22cb465146104ba578063b88d4fde146104e357610166565b806355f804b31461036d5780636352211e1461039657806370a08231146103d3578063715018a6146104105780638462151c146104275780638da5cb5b1461046457610166565b806323b872dd1161012357806323b872dd1461027b5780632f745c59146102a45780633b4b1381146102e15780633ccfd60b146102fd57806342842e0e146103075780634f6ccce71461033057610166565b806301ffc9a71461016b57806306fdde03146101a8578063081812fc146101d3578063095ea7b314610210578063144100c71461023957806318160ddd14610250575b600080fd5b34801561017757600080fd5b50610192600480360381019061018d9190612ca2565b6105da565b60405161019f91906132e0565b60405180910390f35b3480156101b457600080fd5b506101bd610654565b6040516101ca91906132fb565b60405180910390f35b3480156101df57600080fd5b506101fa60048036038101906101f59190612d35565b6106e6565b6040516102079190613257565b60405180910390f35b34801561021c57600080fd5b5061023760048036038101906102329190612c66565b61076b565b005b34801561024557600080fd5b5061024e610883565b005b34801561025c57600080fd5b5061026561098f565b604051610272919061361d565b60405180910390f35b34801561028757600080fd5b506102a2600480360381019061029d9190612b60565b61099c565b005b3480156102b057600080fd5b506102cb60048036038101906102c69190612c66565b6109fc565b6040516102d8919061361d565b60405180910390f35b6102fb60048036038101906102f69190612d35565b610aa1565b005b610305610bd9565b005b34801561031357600080fd5b5061032e60048036038101906103299190612b60565b610d4d565b005b34801561033c57600080fd5b5061035760048036038101906103529190612d35565b610d6d565b604051610364919061361d565b60405180910390f35b34801561037957600080fd5b50610394600480360381019061038f9190612cf4565b610e04565b005b3480156103a257600080fd5b506103bd60048036038101906103b89190612d35565b610e9a565b6040516103ca9190613257565b60405180910390f35b3480156103df57600080fd5b506103fa60048036038101906103f59190612afb565b610f4c565b604051610407919061361d565b60405180910390f35b34801561041c57600080fd5b50610425611004565b005b34801561043357600080fd5b5061044e60048036038101906104499190612afb565b61108c565b60405161045b91906132be565b60405180910390f35b34801561047057600080fd5b50610479611186565b6040516104869190613257565b60405180910390f35b34801561049b57600080fd5b506104a46111b0565b6040516104b191906132fb565b60405180910390f35b3480156104c657600080fd5b506104e160048036038101906104dc9190612c2a565b611242565b005b3480156104ef57600080fd5b5061050a60048036038101906105059190612baf565b611258565b005b34801561051857600080fd5b50610533600480360381019061052e9190612d35565b6112ba565b60405161054091906132fb565b60405180910390f35b34801561055557600080fd5b5061055e611361565b60405161056b91906132fb565b60405180910390f35b34801561058057600080fd5b5061059b60048036038101906105969190612b24565b6113ef565b6040516105a891906132e0565b60405180910390f35b3480156105bd57600080fd5b506105d860048036038101906105d39190612afb565b611483565b005b60007f780e9d63000000000000000000000000000000000000000000000000000000007bffffffffffffffffffffffffffffffffffffffffffffffffffffffff1916827bffffffffffffffffffffffffffffffffffffffffffffffffffffffff1916148061064d575061064c8261157b565b5b9050919050565b60606000805461066390613911565b80601f016020809104026020016040519081016040528092919081815260200182805461068f90613911565b80156106dc5780601f106106b1576101008083540402835291602001916106dc565b820191906000526020600020905b8154815290600101906020018083116106bf57829003601f168201915b5050505050905090565b60006106f18261165d565b610730576040517f08c379a00000000000000000000000000000000000000000000000000000000081526004016107279061353d565b60405180910390fd5b6004600083815260200190815260200160002060009054906101000a900473ffffffffffffffffffffffffffffffffffffffff169050919050565b600061077682610e9a565b90508073ffffffffffffffffffffffffffffffffffffffff168373ffffffffffffffffffffffffffffffffffffffff1614156107e7576040517f08c379a00000000000000000000000000000000000000000000000000000000081526004016107de9061359d565b60405180910390fd5b8073ffffffffffffffffffffffffffffffffffffffff166108066116c9565b73ffffffffffffffffffffffffffffffffffffffff16148061083557506108348161082f6116c9565b6113ef565b5b610874576040517f08c379a000000000000000000000000000000000000000000000000000000000815260040161086b9061349d565b60405180910390fd5b61087e83836116d1565b505050565b61088b6116c9565b73ffffffffffffffffffffffffffffffffffffffff166108a9611186565b73ffffffffffffffffffffffffffffffffffffffff16146108ff576040517f08c379a00000000000000000000000000000000000000000000000000000000081526004016108f69061355d565b60405180910390fd5b600061090b600b61178a565b9050600c54610924600a8361179890919063ffffffff16565b10610964576040517f08c379a000000000000000000000000000000000000000000000000000000000815260040161095b9061331d565b60405180910390fd5b60005b600a81101561098b576109786117ae565b808061098390613974565b915050610967565b5050565b6000600880549050905090565b6109ad6109a76116c9565b826117d3565b6109ec576040517f08c379a00000000000000000000000000000000000000000000000000000000081526004016109e3906135dd565b60405180910390fd5b6109f78383836118b1565b505050565b6000610a0783610f4c565b8210610a48576040517f08c379a0000000000000000000000000000000000000000000000000000000008152600401610a3f9061333d565b60405180910390fd5b600660008473ffffffffffffffffffffffffffffffffffffffff1673ffffffffffffffffffffffffffffffffffffffff168152602001908152602001600020600083815260200190815260200160002054905092915050565b6000610aad600b61178a565b9050600c54610ac5838361179890919063ffffffff16565b1115610b06576040517f08c379a0000000000000000000000000000000000000000000000000000000008152600401610afd9061343d565b60405180910390fd5b600082118015610b185750600e548211155b610b57576040517f08c379a0000000000000000000000000000000000000000000000000000000008152600401610b4e9061345d565b60405180910390fd5b610b6c82600d54611b1890919063ffffffff16565b341015610bae576040517f08c379a0000000000000000000000000000000000000000000000000000000008152600401610ba59061341d565b60405180910390fd5b60005b82811015610bd457610bc16117ae565b8080610bcc90613974565b915050610bb1565b505050565b610be16116c9565b73ffffffffffffffffffffffffffffffffffffffff16610bff611186565b73ffffffffffffffffffffffffffffffffffffffff1614610c55576040517f08c379a0000000000000000000000000000000000000000000000000000000008152600401610c4c9061355d565b60405180910390fd5b600047905060008111610c9d576040517f08c379a0000000000000000000000000000000000000000000000000000000008152600401610c949061351d565b60405180910390fd5b60003373ffffffffffffffffffffffffffffffffffffffff1682604051610cc390613242565b60006040518083038185875af1925050503d8060008114610d00576040519150601f19603f3d011682016040523d82523d6000602084013e610d05565b606091505b5050905080610d49576040517f08c379a0000000000000000000000000000000000000000000000000000000008152600401610d40906135bd565b60405180910390fd5b5050565b610d6883838360405180602001604052806000815250611258565b505050565b6000610d7761098f565b8210610db8576040517f08c379a0000000000000000000000000000000000000000000000000000000008152600401610daf906135fd565b60405180910390fd5b60088281548110610df2577f4e487b7100000000000000000000000000000000000000000000000000000000600052603260045260246000fd5b90600052602060002001549050919050565b610e0c6116c9565b73ffffffffffffffffffffffffffffffffffffffff16610e2a611186565b73ffffffffffffffffffffffffffffffffffffffff1614610e80576040517f08c379a0000000000000000000000000000000000000000000000000000000008152600401610e779061355d565b60405180910390fd5b80600f9080519060200190610e9692919061291f565b5050565b6000806002600084815260200190815260200160002060009054906101000a900473ffffffffffffffffffffffffffffffffffffffff169050600073ffffffffffffffffffffffffffffffffffffffff168173ffffffffffffffffffffffffffffffffffffffff161415610f43576040517f08c379a0000000000000000000000000000000000000000000000000000000008152600401610f3a906134dd565b60405180910390fd5b80915050919050565b60008073ffffffffffffffffffffffffffffffffffffffff168273ffffffffffffffffffffffffffffffffffffffff161415610fbd576040517f08c379a0000000000000000000000000000000000000000000000000000000008152600401610fb4906134bd565b60405180910390fd5b600360008373ffffffffffffffffffffffffffffffffffffffff1673ffffffffffffffffffffffffffffffffffffffff168152602001908152602001600020549050919050565b61100c6116c9565b73ffffffffffffffffffffffffffffffffffffffff1661102a611186565b73ffffffffffffffffffffffffffffffffffffffff1614611080576040517f08c379a00000000000000000000000000000000000000000000000000000000081526004016110779061355d565b60405180910390fd5b61108a6000611b2e565b565b6060600061109983610f4c565b905060008167ffffffffffffffff8111156110dd577f4e487b7100000000000000000000000000000000000000000000000000000000600052604160045260246000fd5b60405190808252806020026020018201604052801561110b5781602001602082028036833780820191505090505b50905060005b8281101561117b5761112385826109fc565b82828151811061115c577f4e487b7100000000000000000000000000000000000000000000000000000000600052603260045260246000fd5b602002602001018181525050808061117390613974565b915050611111565b508092505050919050565b6000600a60009054906101000a900473ffffffffffffffffffffffffffffffffffffffff16905090565b6060600180546111bf90613911565b80601f01602080910402602001604051908101604052809291908181526020018280546111eb90613911565b80156112385780601f1061120d57610100808354040283529160200191611238565b820191906000526020600020905b81548152906001019060200180831161121b57829003601f168201915b5050505050905090565b61125461124d6116c9565b8383611bf4565b5050565b6112696112636116c9565b836117d3565b6112a8576040517f08c379a000000000000000000000000000000000000000000000000000000000815260040161129f906135dd565b60405180910390fd5b6112b484848484611d61565b50505050565b60606112c58261165d565b611304576040517f08c379a00000000000000000000000000000000000000000000000000000000081526004016112fb9061357d565b60405180910390fd5b600061130e611dbd565b9050600081511161132e5760405180602001604052806000815250611359565b8061133884611e4f565b60405160200161134992919061321e565b6040516020818303038152906040525b915050919050565b600f805461136e90613911565b80601f016020809104026020016040519081016040528092919081815260200182805461139a90613911565b80156113e75780601f106113bc576101008083540402835291602001916113e7565b820191906000526020600020905b8154815290600101906020018083116113ca57829003601f168201915b505050505081565b6000600560008473ffffffffffffffffffffffffffffffffffffffff1673ffffffffffffffffffffffffffffffffffffffff16815260200190815260200160002060008373ffffffffffffffffffffffffffffffffffffffff1673ffffffffffffffffffffffffffffffffffffffff16815260200190815260200160002060009054906101000a900460ff16905092915050565b61148b6116c9565b73ffffffffffffffffffffffffffffffffffffffff166114a9611186565b73ffffffffffffffffffffffffffffffffffffffff16146114ff576040517f08c379a00000000000000000000000000000000000000000000000000000000081526004016114f69061355d565b60405180910390fd5b600073ffffffffffffffffffffffffffffffffffffffff168173ffffffffffffffffffffffffffffffffffffffff16141561156f576040517f08c379a00000000000000000000000000000000000000000000000000000000081526004016115669061337d565b60405180910390fd5b61157881611b2e565b50565b60007f80ac58cd000000000000000000000000000000000000000000000000000000007bffffffffffffffffffffffffffffffffffffffffffffffffffffffff1916827bffffffffffffffffffffffffffffffffffffffffffffffffffffffff1916148061164657507f5b5e139f000000000000000000000000000000000000000000000000000000007bffffffffffffffffffffffffffffffffffffffffffffffffffffffff1916827bffffffffffffffffffffffffffffffffffffffffffffffffffffffff1916145b80611656575061165582611ffc565b5b9050919050565b60008073ffffffffffffffffffffffffffffffffffffffff166002600084815260200190815260200160002060009054906101000a900473ffffffffffffffffffffffffffffffffffffffff1673ffffffffffffffffffffffffffffffffffffffff1614159050919050565b600033905090565b816004600083815260200190815260200160002060006101000a81548173ffffffffffffffffffffffffffffffffffffffff021916908373ffffffffffffffffffffffffffffffffffffffff160217905550808273ffffffffffffffffffffffffffffffffffffffff1661174483610e9a565b73ffffffffffffffffffffffffffffffffffffffff167f8c5be1e5ebec7d5bd14f71427d1e84f3dd0314c0f7b2291e5b200ac8c7c3b92560405160405180910390a45050565b600081600001549050919050565b600081836117a69190613746565b905092915050565b60006117ba600b61178a565b90506117c63382612066565b6117d0600b612084565b50565b60006117de8261165d565b61181d576040517f08c379a00000000000000000000000000000000000000000000000000000000081526004016118149061347d565b60405180910390fd5b600061182883610e9a565b90508073ffffffffffffffffffffffffffffffffffffffff168473ffffffffffffffffffffffffffffffffffffffff16148061189757508373ffffffffffffffffffffffffffffffffffffffff1661187f846106e6565b73ffffffffffffffffffffffffffffffffffffffff16145b806118a857506118a781856113ef565b5b91505092915050565b8273ffffffffffffffffffffffffffffffffffffffff166118d182610e9a565b73ffffffffffffffffffffffffffffffffffffffff1614611927576040517f08c379a000000000000000000000000000000000000000000000000000000000815260040161191e9061339d565b60405180910390fd5b600073ffffffffffffffffffffffffffffffffffffffff168273ffffffffffffffffffffffffffffffffffffffff161415611997576040517f08c379a000000000000000000000000000000000000000000000000000000000815260040161198e906133dd565b60405180910390fd5b6119a283838361209a565b6119ad6000826116d1565b6001600360008573ffffffffffffffffffffffffffffffffffffffff1673ffffffffffffffffffffffffffffffffffffffff16815260200190815260200160002060008282546119fd9190613827565b925050819055506001600360008473ffffffffffffffffffffffffffffffffffffffff1673ffffffffffffffffffffffffffffffffffffffff1681526020019081526020016000206000828254611a549190613746565b92505081905550816002600083815260200190815260200160002060006101000a81548173ffffffffffffffffffffffffffffffffffffffff021916908373ffffffffffffffffffffffffffffffffffffffff160217905550808273ffffffffffffffffffffffffffffffffffffffff168473ffffffffffffffffffffffffffffffffffffffff167fddf252ad1be2c89b69c2b068fc378daa952ba7f163c4a11628f55a4df523b3ef60405160405180910390a4611b138383836121ae565b505050565b60008183611b2691906137cd565b905092915050565b6000600a60009054906101000a900473ffffffffffffffffffffffffffffffffffffffff16905081600a60006101000a81548173ffffffffffffffffffffffffffffffffffffffff021916908373ffffffffffffffffffffffffffffffffffffffff1602179055508173ffffffffffffffffffffffffffffffffffffffff168173ffffffffffffffffffffffffffffffffffffffff167f8be0079c531659141344cd1fd0a4f28419497f9722a3daafe3b4186f6b6457e060405160405180910390a35050565b8173ffffffffffffffffffffffffffffffffffffffff168373ffffffffffffffffffffffffffffffffffffffff161415611c63576040517f08c379a0000000000000000000000000000000000000000000000000000000008152600401611c5a906133fd565b60405180910390fd5b80600560008573ffffffffffffffffffffffffffffffffffffffff1673ffffffffffffffffffffffffffffffffffffffff16815260200190815260200160002060008473ffffffffffffffffffffffffffffffffffffffff1673ffffffffffffffffffffffffffffffffffffffff16815260200190815260200160002060006101000a81548160ff0219169083151502179055508173ffffffffffffffffffffffffffffffffffffffff168373ffffffffffffffffffffffffffffffffffffffff167f17307eab39ab6107e8899845ad3d59bd9653f200f220920489ca2b5937696c3183604051611d5491906132e0565b60405180910390a3505050565b611d6c8484846118b1565b611d78848484846121b3565b611db7576040517f08c379a0000000000000000000000000000000000000000000000000000000008152600401611dae9061335d565b60405180910390fd5b50505050565b6060600f8054611dcc90613911565b80601f0160208091040260200160405190810160405280929190818152602001828054611df890613911565b8015611e455780601f10611e1a57610100808354040283529160200191611e45565b820191906000526020600020905b815481529060010190602001808311611e2857829003601f168201915b5050505050905090565b60606000821415611e97576040518060400160405280600181526020017f30000000000000000000000000000000000000000000000000000000000000008152509050611ff7565b600082905060005b60008214611ec9578080611eb290613974565b915050600a82611ec2919061379c565b9150611e9f565b60008167ffffffffffffffff811115611f0b577f4e487b7100000000000000000000000000000000000000000000000000000000600052604160045260246000fd5b6040519080825280601f01601f191660200182016040528015611f3d5781602001600182028036833780820191505090505b5090505b60008514611ff057600182611f569190613827565b9150600a85611f6591906139bd565b6030611f719190613746565b60f81b818381518110611fad577f4e487b7100000000000000000000000000000000000000000000000000000000600052603260045260246000fd5b60200101907effffffffffffffffffffffffffffffffffffffffffffffffffffffffffffff1916908160001a905350600a85611fe9919061379c565b9450611f41565b8093505050505b919050565b60007f01ffc9a7000000000000000000000000000000000000000000000000000000007bffffffffffffffffffffffffffffffffffffffffffffffffffffffff1916827bffffffffffffffffffffffffffffffffffffffffffffffffffffffff1916149050919050565b61208082826040518060200160405280600081525061234a565b5050565b6001816000016000828254019250508190555050565b6120a58383836123a5565b600073ffffffffffffffffffffffffffffffffffffffff168373ffffffffffffffffffffffffffffffffffffffff1614156120e8576120e3816123aa565b612127565b8173ffffffffffffffffffffffffffffffffffffffff168373ffffffffffffffffffffffffffffffffffffffff16146121265761212583826123f3565b5b5b600073ffffffffffffffffffffffffffffffffffffffff168273ffffffffffffffffffffffffffffffffffffffff16141561216a5761216581612560565b6121a9565b8273ffffffffffffffffffffffffffffffffffffffff168273ffffffffffffffffffffffffffffffffffffffff16146121a8576121a782826126a3565b5b5b505050565b505050565b60006121d48473ffffffffffffffffffffffffffffffffffffffff16612722565b1561233d578373ffffffffffffffffffffffffffffffffffffffff1663150b7a026121fd6116c9565b8786866040518563ffffffff1660e01b815260040161221f9493929190613272565b602060405180830381600087803b15801561223957600080fd5b505af192505050801561226a57506040513d601f19601f820116820180604052508101906122679190612ccb565b60015b6122ed573d806000811461229a576040519150601f19603f3d011682016040523d82523d6000602084013e61229f565b606091505b506000815114156122e5576040517f08c379a00000000000000000000000000000000000000000000000000000000081526004016122dc9061335d565b60405180910390fd5b805181602001fd5b63150b7a0260e01b7bffffffffffffffffffffffffffffffffffffffffffffffffffffffff1916817bffffffffffffffffffffffffffffffffffffffffffffffffffffffff191614915050612342565b600190505b949350505050565b6123548383612745565b61236160008484846121b3565b6123a0576040517f08c379a00000000000000000000000000000000000000000000000000000000081526004016123979061335d565b60405180910390fd5b505050565b505050565b6008805490506009600083815260200190815260200160002081905550600881908060018154018082558091505060019003906000526020600020016000909190919091505550565b6000600161240084610f4c565b61240a9190613827565b90506000600760008481526020019081526020016000205490508181146124ef576000600660008673ffffffffffffffffffffffffffffffffffffffff1673ffffffffffffffffffffffffffffffffffffffff168152602001908152602001600020600084815260200190815260200160002054905080600660008773ffffffffffffffffffffffffffffffffffffffff1673ffffffffffffffffffffffffffffffffffffffff168152602001908152602001600020600084815260200190815260200160002081905550816007600083815260200190815260200160002081905550505b6007600084815260200190815260200160002060009055600660008573ffffffffffffffffffffffffffffffffffffffff1673ffffffffffffffffffffffffffffffffffffffff16815260200190815260200160002060008381526020019081526020016000206000905550505050565b600060016008805490506125749190613827565b90506000600960008481526020019081526020016000205490506000600883815481106125ca577f4e487b7100000000000000000000000000000000000000000000000000000000600052603260045260246000fd5b906000526020600020015490508060088381548110612612577f4e487b7100000000000000000000000000000000000000000000000000000000600052603260045260246000fd5b906000526020600020018190555081600960008381526020019081526020016000208190555060096000858152602001908152602001600020600090556008805480612687577f4e487b7100000000000000000000000000000000000000000000000000000000600052603160045260246000fd5b6001900381819060005260206000200160009055905550505050565b60006126ae83610f4c565b905081600660008573ffffffffffffffffffffffffffffffffffffffff1673ffffffffffffffffffffffffffffffffffffffff168152602001908152602001600020600083815260200190815260200160002081905550806007600084815260200190815260200160002081905550505050565b6000808273ffffffffffffffffffffffffffffffffffffffff163b119050919050565b600073ffffffffffffffffffffffffffffffffffffffff168273ffffffffffffffffffffffffffffffffffffffff1614156127b5576040517f08c379a00000000000000000000000000000000000000000000000000000000081526004016127ac906134fd565b60405180910390fd5b6127be8161165d565b156127fe576040517f08c379a00000000000000000000000000000000000000000000000000000000081526004016127f5906133bd565b60405180910390fd5b61280a6000838361209a565b6001600360008473ffffffffffffffffffffffffffffffffffffffff1673ffffffffffffffffffffffffffffffffffffffff168152602001908152602001600020600082825461285a9190613746565b92505081905550816002600083815260200190815260200160002060006101000a81548173ffffffffffffffffffffffffffffffffffffffff021916908373ffffffffffffffffffffffffffffffffffffffff160217905550808273ffffffffffffffffffffffffffffffffffffffff16600073ffffffffffffffffffffffffffffffffffffffff167fddf252ad1be2c89b69c2b068fc378daa952ba7f163c4a11628f55a4df523b3ef60405160405180910390a461291b600083836121ae565b5050565b82805461292b90613911565b90600052602060002090601f01602090048101928261294d5760008555612994565b82601f1061296657805160ff1916838001178555612994565b82800160010185558215612994579182015b82811115612993578251825591602001919060010190612978565b5b5090506129a191906129a5565b5090565b5b808211156129be5760008160009055506001016129a6565b5090565b60006129d56129d08461365d565b613638565b9050828152602081018484840111156129ed57600080fd5b6129f88482856138cf565b509392505050565b6000612a13612a0e8461368e565b613638565b905082815260208101848484011115612a2b57600080fd5b612a368482856138cf565b509392505050565b600081359050612a4d816140f6565b92915050565b600081359050612a628161410d565b92915050565b600081359050612a7781614124565b92915050565b600081519050612a8c81614124565b92915050565b600082601f830112612aa357600080fd5b8135612ab38482602086016129c2565b91505092915050565b600082601f830112612acd57600080fd5b8135612add848260208601612a00565b91505092915050565b600081359050612af58161413b565b92915050565b600060208284031215612b0d57600080fd5b6000612b1b84828501612a3e565b91505092915050565b60008060408385031215612b3757600080fd5b6000612b4585828601612a3e565b9250506020612b5685828601612a3e565b9150509250929050565b600080600060608486031215612b7557600080fd5b6000612b8386828701612a3e565b9350506020612b9486828701612a3e565b9250506040612ba586828701612ae6565b9150509250925092565b60008060008060808587031215612bc557600080fd5b6000612bd387828801612a3e565b9450506020612be487828801612a3e565b9350506040612bf587828801612ae6565b925050606085013567ffffffffffffffff811115612c1257600080fd5b612c1e87828801612a92565b91505092959194509250565b60008060408385031215612c3d57600080fd5b6000612c4b85828601612a3e565b9250506020612c5c85828601612a53565b9150509250929050565b60008060408385031215612c7957600080fd5b6000612c8785828601612a3e565b9250506020612c9885828601612ae6565b9150509250929050565b600060208284031215612cb457600080fd5b6000612cc284828501612a68565b91505092915050565b600060208284031215612cdd57600080fd5b6000612ceb84828501612a7d565b91505092915050565b600060208284031215612d0657600080fd5b600082013567ffffffffffffffff811115612d2057600080fd5b612d2c84828501612abc565b91505092915050565b600060208284031215612d4757600080fd5b6000612d5584828501612ae6565b91505092915050565b6000612d6a8383613200565b60208301905092915050565b612d7f8161385b565b82525050565b6000612d90826136cf565b612d9a81856136fd565b9350612da5836136bf565b8060005b83811015612dd6578151612dbd8882612d5e565b9750612dc8836136f0565b925050600181019050612da9565b5085935050505092915050565b612dec8161386d565b82525050565b6000612dfd826136da565b612e07818561370e565b9350612e178185602086016138de565b612e2081613aaa565b840191505092915050565b6000612e36826136e5565b612e40818561372a565b9350612e508185602086016138de565b612e5981613aaa565b840191505092915050565b6000612e6f826136e5565b612e79818561373b565b9350612e898185602086016138de565b80840191505092915050565b6000612ea2601f8361372a565b9150612ead82613abb565b602082019050919050565b6000612ec5602b8361372a565b9150612ed082613ae4565b604082019050919050565b6000612ee860328361372a565b9150612ef382613b33565b604082019050919050565b6000612f0b60268361372a565b9150612f1682613b82565b604082019050919050565b6000612f2e60258361372a565b9150612f3982613bd1565b604082019050919050565b6000612f51601c8361372a565b9150612f5c82613c20565b602082019050919050565b6000612f7460248361372a565b9150612f7f82613c49565b604082019050919050565b6000612f9760198361372a565b9150612fa282613c98565b602082019050919050565b6000612fba60228361372a565b9150612fc582613cc1565b604082019050919050565b6000612fdd60158361372a565b9150612fe882613d10565b602082019050919050565b600061300060258361372a565b915061300b82613d39565b604082019050919050565b6000613023602c8361372a565b915061302e82613d88565b604082019050919050565b600061304660388361372a565b915061305182613dd7565b604082019050919050565b6000613069602a8361372a565b915061307482613e26565b604082019050919050565b600061308c60298361372a565b915061309782613e75565b604082019050919050565b60006130af60208361372a565b91506130ba82613ec4565b602082019050919050565b60006130d260198361372a565b91506130dd82613eed565b602082019050919050565b60006130f5602c8361372a565b915061310082613f16565b604082019050919050565b600061311860208361372a565b915061312382613f65565b602082019050919050565b600061313b602f8361372a565b915061314682613f8e565b604082019050919050565b600061315e60218361372a565b915061316982613fdd565b604082019050919050565b600061318160008361371f565b915061318c8261402c565b600082019050919050565b60006131a460108361372a565b91506131af8261402f565b602082019050919050565b60006131c760318361372a565b91506131d282614058565b604082019050919050565b60006131ea602c8361372a565b91506131f5826140a7565b604082019050919050565b613209816138c5565b82525050565b613218816138c5565b82525050565b600061322a8285612e64565b91506132368284612e64565b91508190509392505050565b600061324d82613174565b9150819050919050565b600060208201905061326c6000830184612d76565b92915050565b60006080820190506132876000830187612d76565b6132946020830186612d76565b6132a1604083018561320f565b81810360608301526132b38184612df2565b905095945050505050565b600060208201905081810360008301526132d88184612d85565b905092915050565b60006020820190506132f56000830184612de3565b92915050565b600060208201905081810360008301526133158184612e2b565b905092915050565b6000602082019050818103600083015261333681612e95565b9050919050565b6000602082019050818103600083015261335681612eb8565b9050919050565b6000602082019050818103600083015261337681612edb565b9050919050565b6000602082019050818103600083015261339681612efe565b9050919050565b600060208201905081810360008301526133b681612f21565b9050919050565b600060208201905081810360008301526133d681612f44565b9050919050565b600060208201905081810360008301526133f681612f67565b9050919050565b6000602082019050818103600083015261341681612f8a565b9050919050565b6000602082019050818103600083015261343681612fad565b9050919050565b6000602082019050818103600083015261345681612fd0565b9050919050565b6000602082019050818103600083015261347681612ff3565b9050919050565b6000602082019050818103600083015261349681613016565b9050919050565b600060208201905081810360008301526134b681613039565b9050919050565b600060208201905081810360008301526134d68161305c565b9050919050565b600060208201905081810360008301526134f68161307f565b9050919050565b60006020820190508181036000830152613516816130a2565b9050919050565b60006020820190508181036000830152613536816130c5565b9050919050565b60006020820190508181036000830152613556816130e8565b9050919050565b600060208201905081810360008301526135768161310b565b9050919050565b600060208201905081810360008301526135968161312e565b9050919050565b600060208201905081810360008301526135b681613151565b9050919050565b600060208201905081810360008301526135d681613197565b9050919050565b600060208201905081810360008301526135f6816131ba565b9050919050565b60006020820190508181036000830152613616816131dd565b9050919050565b6000602082019050613632600083018461320f565b92915050565b6000613642613653565b905061364e8282613943565b919050565b6000604051905090565b600067ffffffffffffffff82111561367857613677613a7b565b5b61368182613aaa565b9050602081019050919050565b600067ffffffffffffffff8211156136a9576136a8613a7b565b5b6136b282613aaa565b9050602081019050919050565b6000819050602082019050919050565b600081519050919050565b600081519050919050565b600081519050919050565b6000602082019050919050565b600082825260208201905092915050565b600082825260208201905092915050565b600081905092915050565b600082825260208201905092915050565b600081905092915050565b6000613751826138c5565b915061375c836138c5565b9250827fffffffffffffffffffffffffffffffffffffffffffffffffffffffffffffffff03821115613791576137906139ee565b5b828201905092915050565b60006137a7826138c5565b91506137b2836138c5565b9250826137c2576137c1613a1d565b5b828204905092915050565b60006137d8826138c5565b91506137e3836138c5565b9250817fffffffffffffffffffffffffffffffffffffffffffffffffffffffffffffffff048311821515161561381c5761381b6139ee565b5b828202905092915050565b6000613832826138c5565b915061383d836138c5565b9250828210156138505761384f6139ee565b5b828203905092915050565b6000613866826138a5565b9050919050565b60008115159050919050565b60007fffffffff0000000000000000000000000000000000000000000000000000000082169050919050565b600073ffffffffffffffffffffffffffffffffffffffff82169050919050565b6000819050919050565b82818337600083830152505050565b60005b838110156138fc5780820151818401526020810190506138e1565b8381111561390b576000848401525b50505050565b6000600282049050600182168061392957607f821691505b6020821081141561393d5761393c613a4c565b5b50919050565b61394c82613aaa565b810181811067ffffffffffffffff8211171561396b5761396a613a7b565b5b80604052505050565b600061397f826138c5565b91507fffffffffffffffffffffffffffffffffffffffffffffffffffffffffffffffff8214156139b2576139b16139ee565b5b600182019050919050565b60006139c8826138c5565b91506139d3836138c5565b9250826139e3576139e2613a1d565b5b828206905092915050565b7f4e487b7100000000000000000000000000000000000000000000000000000000600052601160045260246000fd5b7f4e487b7100000000000000000000000000000000000000000000000000000000600052601260045260246000fd5b7f4e487b7100000000000000000000000000000000000000000000000000000000600052602260045260246000fd5b7f4e487b7100000000000000000000000000000000000000000000000000000000600052604160045260246000fd5b6000601f19601f8301169050919050565b7f4e6f7420656e6f756768204e465473206c65667420746f207265736572766500600082015250565b7f455243373231456e756d657261626c653a206f776e657220696e646578206f7560008201527f74206f6620626f756e6473000000000000000000000000000000000000000000602082015250565b7f4552433732313a207472616e7366657220746f206e6f6e20455243373231526560008201527f63656976657220696d706c656d656e7465720000000000000000000000000000602082015250565b7f4f776e61626c653a206e6577206f776e657220697320746865207a65726f206160008201527f6464726573730000000000000000000000000000000000000000000000000000602082015250565b7f4552433732313a207472616e736665722066726f6d20696e636f72726563742060008201527f6f776e6572000000000000000000000000000000000000000000000000000000602082015250565b7f4552433732313a20746f6b656e20616c7265616479206d696e74656400000000600082015250565b7f4552433732313a207472616e7366657220746f20746865207a65726f2061646460008201527f7265737300000000000000000000000000000000000000000000000000000000602082015250565b7f4552433732313a20617070726f766520746f2063616c6c657200000000000000600082015250565b7f4e6f7420656e6f75676820657468657220746f207075726368617365204e465460008201527f732e000000000000000000000000000000000000000000000000000000000000602082015250565b7f4e6f7420656e6f756768204e465473206c656674210000000000000000000000600082015250565b7f43616e6e6f74206d696e7420737065636966696564206e756d626572206f662060008201527f4e4654732e000000000000000000000000000000000000000000000000000000602082015250565b7f4552433732313a206f70657261746f7220717565727920666f72206e6f6e657860008201527f697374656e7420746f6b656e0000000000000000000000000000000000000000602082015250565b7f4552433732313a20617070726f76652063616c6c6572206973206e6f74206f7760008201527f6e6572206e6f7220617070726f76656420666f7220616c6c0000000000000000602082015250565b7f4552433732313a2062616c616e636520717565727920666f7220746865207a6560008201527f726f206164647265737300000000000000000000000000000000000000000000602082015250565b7f4552433732313a206f776e657220717565727920666f72206e6f6e657869737460008201527f656e7420746f6b656e0000000000000000000000000000000000000000000000602082015250565b7f4552433732313a206d696e7420746f20746865207a65726f2061646472657373600082015250565b7f4e6f206574686572206c65667420746f20776974686472617700000000000000600082015250565b7f4552433732313a20617070726f76656420717565727920666f72206e6f6e657860008201527f697374656e7420746f6b656e0000000000000000000000000000000000000000602082015250565b7f4f776e61626c653a2063616c6c6572206973206e6f7420746865206f776e6572600082015250565b7f4552433732314d657461646174613a2055524920717565727920666f72206e6f60008201527f6e6578697374656e7420746f6b656e0000000000000000000000000000000000602082015250565b7f4552433732313a20617070726f76616c20746f2063757272656e74206f776e6560008201527f7200000000000000000000000000000000000000000000000000000000000000602082015250565b50565b7f5472616e73666572206661696c65642e00000000000000000000000000000000600082015250565b7f4552433732313a207472616e736665722063616c6c6572206973206e6f74206f60008201527f776e6572206e6f7220617070726f766564000000000000000000000000000000602082015250565b7f455243373231456e756d657261626c653a20676c6f62616c20696e646578206f60008201527f7574206f6620626f756e64730000000000000000000000000000000000000000602082015250565b6140ff8161385b565b811461410a57600080fd5b50565b6141168161386d565b811461412157600080fd5b50565b61412d81613879565b811461413857600080fd5b50565b614144816138c5565b811461414f57600080fd5b5056fea2646970667358221220b5230433ceed8db895655546a7ec7b63ddab32e11460f7694ef6c8a48a4b83f864736f6c63430008040033",
  "linkReferences": {},
  "deployedLinkReferences": {}
}